{
  "contractName": "Mileage",
  "abi": [
    {
      "inputs": [],
      "name": "count",
      "outputs": [
        {
          "internalType": "uint256",
          "name": "",
          "type": "uint256"
        }
      ],
      "stateMutability": "view",
      "type": "function",
      "constant": true
    },
    {
      "inputs": [
        {
          "internalType": "address",
          "name": "",
          "type": "address"
        }
      ],
      "name": "gasPrices",
      "outputs": [
        {
          "internalType": "uint256",
          "name": "",
          "type": "uint256"
        }
      ],
      "stateMutability": "view",
      "type": "function",
      "constant": true
    },
    {
      "inputs": [
        {
          "internalType": "address",
          "name": "",
          "type": "address"
        },
        {
          "internalType": "uint256",
          "name": "",
          "type": "uint256"
        }
      ],
      "name": "mileageRecords",
      "outputs": [
        {
          "internalType": "uint256",
          "name": "timestamp",
          "type": "uint256"
        },
        {
          "internalType": "uint256",
          "name": "fuelLevel",
          "type": "uint256"
        },
        {
          "internalType": "uint256",
          "name": "distanceTraveled",
          "type": "uint256"
        }
      ],
      "stateMutability": "view",
      "type": "function",
      "constant": true
    },
    {
      "inputs": [],
      "name": "get",
      "outputs": [
        {
          "internalType": "uint256",
          "name": "",
          "type": "uint256"
        }
      ],
      "stateMutability": "view",
      "type": "function",
      "constant": true
    },
    {
      "inputs": [],
      "name": "inc",
      "outputs": [],
      "stateMutability": "nonpayable",
      "type": "function"
    },
    {
      "inputs": [],
      "name": "dec",
      "outputs": [],
      "stateMutability": "nonpayable",
      "type": "function"
    },
    {
      "inputs": [
        {
          "internalType": "uint256",
          "name": "_fuelLevel",
          "type": "uint256"
        },
        {
          "internalType": "uint256",
          "name": "_distanceTraveled",
          "type": "uint256"
        }
      ],
      "name": "addMileageRecord",
      "outputs": [],
      "stateMutability": "nonpayable",
      "type": "function"
    },
    {
      "inputs": [
        {
          "internalType": "uint256",
          "name": "_index",
          "type": "uint256"
        },
        {
          "internalType": "uint256",
          "name": "_fuelLevel",
          "type": "uint256"
        },
        {
          "internalType": "uint256",
          "name": "_distanceTraveled",
          "type": "uint256"
        }
      ],
      "name": "updateMileageRecord",
      "outputs": [],
      "stateMutability": "nonpayable",
      "type": "function"
    },
    {
      "inputs": [
        {
          "internalType": "uint256",
          "name": "_index",
          "type": "uint256"
        }
      ],
      "name": "deleteMileageRecord",
      "outputs": [],
      "stateMutability": "nonpayable",
      "type": "function"
    },
    {
      "inputs": [
        {
          "internalType": "uint256",
          "name": "_price",
          "type": "uint256"
        }
      ],
      "name": "setGasPrice",
      "outputs": [],
      "stateMutability": "nonpayable",
      "type": "function"
    },
    {
      "inputs": [],
      "name": "getGasPrice",
      "outputs": [
        {
          "internalType": "uint256",
          "name": "",
          "type": "uint256"
        }
      ],
      "stateMutability": "view",
      "type": "function",
      "constant": true
    },
    {
      "inputs": [],
      "name": "getMileageRecordCount",
      "outputs": [
        {
          "internalType": "uint256",
          "name": "",
          "type": "uint256"
        }
      ],
      "stateMutability": "view",
      "type": "function",
      "constant": true
    },
    {
      "inputs": [
        {
          "internalType": "uint256",
          "name": "_index",
          "type": "uint256"
        }
      ],
      "name": "getMileageRecord",
      "outputs": [
        {
          "internalType": "uint256",
          "name": "",
          "type": "uint256"
        },
        {
          "internalType": "uint256",
          "name": "",
          "type": "uint256"
        },
        {
          "internalType": "uint256",
          "name": "",
          "type": "uint256"
        }
      ],
      "stateMutability": "view",
      "type": "function",
      "constant": true
    },
    {
      "inputs": [
        {
          "internalType": "uint256",
          "name": "_index",
          "type": "uint256"
        }
      ],
      "name": "calculateGasMileage",
      "outputs": [
        {
          "internalType": "uint256",
          "name": "",
          "type": "uint256"
        }
      ],
      "stateMutability": "view",
      "type": "function",
      "constant": true
    },
    {
      "inputs": [
        {
          "internalType": "uint256",
          "name": "_index",
          "type": "uint256"
        }
      ],
      "name": "calculateGasCost",
      "outputs": [
        {
          "internalType": "uint256",
          "name": "",
          "type": "uint256"
        }
      ],
      "stateMutability": "view",
      "type": "function",
      "constant": true
    }
  ],
  "bytecode": "0x608060405234801561001057600080fd5b5061109f806100206000396000f3fe608060405234801561001057600080fd5b50600436106100f55760003560e01c80635dfedca211610097578063b6abb8dd11610066578063b6abb8dd14610264578063baf81dbb14610280578063bf1fe4201461029e578063e9e80a2f146102ba576100f5565b80635dfedca2146101da5780636d4ce63c1461020c5780637f86d13c1461022a578063b3bcfa821461025a576100f5565b8063371303c0116100d3578063371303c014610166578063455259cb14610170578063591590671461018e57806359eae101146101aa576100f5565b806306661abd146100fa57806307ed408a1461011857806323120d2b14610134575b600080fd5b6101026102ea565b60405161010f9190610c47565b60405180910390f35b610132600480360381019061012d9190610c93565b6102f0565b005b61014e60048036038101906101499190610d44565b6103ef565b60405161015d93929190610d84565b60405180910390f35b61016e610436565b005b610178610451565b6040516101859190610c47565b60405180910390f35b6101a860048036038101906101a39190610dbb565b610498565b005b6101c460048036038101906101bf9190610dfb565b610545565b6040516101d19190610c47565b60405180910390f35b6101f460048036038101906101ef9190610dfb565b6106b4565b60405161020393929190610d84565b60405180910390f35b6102146107e6565b6040516102219190610c47565b60405180910390f35b610244600480360381019061023f9190610e28565b6107ef565b6040516102519190610c47565b60405180910390f35b610262610807565b005b61027e60048036038101906102799190610dfb565b610822565b005b610288610a63565b6040516102959190610c47565b60405180910390f35b6102b860048036038101906102b39190610dfb565b610aad565b005b6102d460048036038101906102cf9190610dfb565b610af4565b6040516102e19190610c47565b60405180910390f35b60005481565b600160003373ffffffffffffffffffffffffffffffffffffffff1673ffffffffffffffffffffffffffffffffffffffff168152602001908152602001600020805490508310610374576040517f08c379a000000000000000000000000000000000000000000000000000000000815260040161036b90610eb2565b60405180910390fd5b6000600160003373ffffffffffffffffffffffffffffffffffffffff1673ffffffffffffffffffffffffffffffffffffffff16815260200190815260200160002084815481106103c7576103c6610ed2565b5b9060005260206000209060030201905082816001018190555081816002018190555050505050565b6001602052816000526040600020818154811061040b57600080fd5b9060005260206000209060030201600091509150508060000154908060010154908060020154905083565b60016000808282546104489190610f30565b92505081905550565b6000600260003373ffffffffffffffffffffffffffffffffffffffff1673ffffffffffffffffffffffffffffffffffffffff16815260200190815260200160002054905090565b60006040518060600160405280428152602001848152602001838152509050600160003373ffffffffffffffffffffffffffffffffffffffff1673ffffffffffffffffffffffffffffffffffffffff1681526020019081526020016000208190806001815401808255809150506001900390600052602060002090600302016000909190919091506000820151816000015560208201518160010155604082015181600201555050505050565b6000600160003373ffffffffffffffffffffffffffffffffffffffff1673ffffffffffffffffffffffffffffffffffffffff1681526020019081526020016000208054905082106105cb576040517f08c379a00000000000000000000000000000000000000000000000000000000081526004016105c290610eb2565b60405180910390fd5b6000600160003373ffffffffffffffffffffffffffffffffffffffff1673ffffffffffffffffffffffffffffffffffffffff168152602001908152602001600020838154811061061e5761061d610ed2565b5b9060005260206000209060030201604051806060016040529081600082015481526020016001820154815260200160028201548152505090506000600260003373ffffffffffffffffffffffffffffffffffffffff1673ffffffffffffffffffffffffffffffffffffffff1681526020019081526020016000205490508082602001516106ab9190610f64565b92505050919050565b6000806000600160003373ffffffffffffffffffffffffffffffffffffffff1673ffffffffffffffffffffffffffffffffffffffff16815260200190815260200160002080549050841061073d576040517f08c379a000000000000000000000000000000000000000000000000000000000815260040161073490610eb2565b60405180910390fd5b6000600160003373ffffffffffffffffffffffffffffffffffffffff1673ffffffffffffffffffffffffffffffffffffffff16815260200190815260200160002085815481106107905761078f610ed2565b5b906000526020600020906003020160405180606001604052908160008201548152602001600182015481526020016002820154815250509050806000015181602001518260400151935093509350509193909250565b60008054905090565b60026020528060005260406000206000915090505481565b60016000808282546108199190610fa6565b92505081905550565b600160003373ffffffffffffffffffffffffffffffffffffffff1673ffffffffffffffffffffffffffffffffffffffff1681526020019081526020016000208054905081106108a6576040517f08c379a000000000000000000000000000000000000000000000000000000000815260040161089d90610eb2565b60405180910390fd5b600060018060003373ffffffffffffffffffffffffffffffffffffffff1673ffffffffffffffffffffffffffffffffffffffff168152602001908152602001600020805490506108f69190610fa6565b90508082146109df57600160003373ffffffffffffffffffffffffffffffffffffffff1673ffffffffffffffffffffffffffffffffffffffff16815260200190815260200160002081815481106109505761094f610ed2565b5b9060005260206000209060030201600160003373ffffffffffffffffffffffffffffffffffffffff1673ffffffffffffffffffffffffffffffffffffffff16815260200190815260200160002083815481106109af576109ae610ed2565b5b90600052602060002090600302016000820154816000015560018201548160010155600282015481600201559050505b600160003373ffffffffffffffffffffffffffffffffffffffff1673ffffffffffffffffffffffffffffffffffffffff168152602001908152602001600020805480610a2e57610a2d610fda565b5b600190038181906000526020600020906003020160008082016000905560018201600090556002820160009055505090555050565b6000600160003373ffffffffffffffffffffffffffffffffffffffff1673ffffffffffffffffffffffffffffffffffffffff16815260200190815260200160002080549050905090565b80600260003373ffffffffffffffffffffffffffffffffffffffff1673ffffffffffffffffffffffffffffffffffffffff1681526020019081526020016000208190555050565b6000600160003373ffffffffffffffffffffffffffffffffffffffff1673ffffffffffffffffffffffffffffffffffffffff168152602001908152602001600020805490508210610b7a576040517f08c379a0000000000000000000000000000000000000000000000000000000008152600401610b7190610eb2565b60405180910390fd5b6000600160003373ffffffffffffffffffffffffffffffffffffffff1673ffffffffffffffffffffffffffffffffffffffff1681526020019081526020016000208381548110610bcd57610bcc610ed2565b5b906000526020600020906003020160405180606001604052908160008201548152602001600182015481526020016002820154815250509050806040015160648260200151610c1c9190610f64565b610c269190611038565b915050919050565b6000819050919050565b610c4181610c2e565b82525050565b6000602082019050610c5c6000830184610c38565b92915050565b600080fd5b610c7081610c2e565b8114610c7b57600080fd5b50565b600081359050610c8d81610c67565b92915050565b600080600060608486031215610cac57610cab610c62565b5b6000610cba86828701610c7e565b9350506020610ccb86828701610c7e565b9250506040610cdc86828701610c7e565b9150509250925092565b600073ffffffffffffffffffffffffffffffffffffffff82169050919050565b6000610d1182610ce6565b9050919050565b610d2181610d06565b8114610d2c57600080fd5b50565b600081359050610d3e81610d18565b92915050565b60008060408385031215610d5b57610d5a610c62565b5b6000610d6985828601610d2f565b9250506020610d7a85828601610c7e565b9150509250929050565b6000606082019050610d996000830186610c38565b610da66020830185610c38565b610db36040830184610c38565b949350505050565b60008060408385031215610dd257610dd1610c62565b5b6000610de085828601610c7e565b9250506020610df185828601610c7e565b9150509250929050565b600060208284031215610e1157610e10610c62565b5b6000610e1f84828501610c7e565b91505092915050565b600060208284031215610e3e57610e3d610c62565b5b6000610e4c84828501610d2f565b91505092915050565b600082825260208201905092915050565b7f496e76616c696420696e64657800000000000000000000000000000000000000600082015250565b6000610e9c600d83610e55565b9150610ea782610e66565b602082019050919050565b60006020820190508181036000830152610ecb81610e8f565b9050919050565b7f4e487b7100000000000000000000000000000000000000000000000000000000600052603260045260246000fd5b7f4e487b7100000000000000000000000000000000000000000000000000000000600052601160045260246000fd5b6000610f3b82610c2e565b9150610f4683610c2e565b9250828201905080821115610f5e57610f5d610f01565b5b92915050565b6000610f6f82610c2e565b9150610f7a83610c2e565b9250828202610f8881610c2e565b91508282048414831517610f9f57610f9e610f01565b5b5092915050565b6000610fb182610c2e565b9150610fbc83610c2e565b9250828203905081811115610fd457610fd3610f01565b5b92915050565b7f4e487b7100000000000000000000000000000000000000000000000000000000600052603160045260246000fd5b7f4e487b7100000000000000000000000000000000000000000000000000000000600052601260045260246000fd5b600061104382610c2e565b915061104e83610c2e565b92508261105e5761105d611009565b5b82820490509291505056fea26469706673582212200bb03c5a8adb6d027d3b81e8c875f7145f64356559e4c00530d03da8d119b48e64736f6c63430008130033",
  "immutableReferences": {},
  "source": "// SPDX-License-Identifier: MIT\r\npragma solidity ^0.8.0;\r\n\r\ncontract Mileage {\r\n\r\n    struct MileageRecord {\r\n        \r\n        uint256 timestamp;\r\n        uint256 fuelLevel;\r\n        uint256 distanceTraveled;\r\n    }\r\n    \r\n    uint public count;\r\n\r\n    function get() public view returns (uint){\r\n        return count;\r\n    }\r\n\r\n    function inc() public {\r\n        count += 1;\r\n    }\r\n\r\n    function dec() public {\r\n        count -= 1;\r\n    }\r\n    \r\n    mapping(address => MileageRecord[]) public mileageRecords;\r\n    mapping(address => uint256) public gasPrices;\r\n    \r\n    function addMileageRecord(uint256 _fuelLevel, uint256 _distanceTraveled) public {\r\n        MileageRecord memory newRecord = MileageRecord({\r\n            timestamp: block.timestamp,\r\n            fuelLevel: _fuelLevel,\r\n            distanceTraveled: _distanceTraveled\r\n        });\r\n        mileageRecords[msg.sender].push(newRecord);\r\n    }\r\n    \r\n    function updateMileageRecord(uint256 _index, uint256 _fuelLevel, uint256 _distanceTraveled) public {\r\n        require(_index < mileageRecords[msg.sender].length, \"Invalid index\");\r\n        MileageRecord storage record = mileageRecords[msg.sender][_index];\r\n        record.fuelLevel = _fuelLevel;\r\n        record.distanceTraveled = _distanceTraveled;\r\n    }\r\n    \r\n    function deleteMileageRecord(uint256 _index) public {\r\n        require(_index < mileageRecords[msg.sender].length, \"Invalid index\");\r\n        uint256 lastIndex = mileageRecords[msg.sender].length - 1;\r\n        if (_index != lastIndex) {\r\n            mileageRecords[msg.sender][_index] = mileageRecords[msg.sender][lastIndex];\r\n        }\r\n        mileageRecords[msg.sender].pop();\r\n    }\r\n    \r\n    function setGasPrice(uint256 _price) public {\r\n        gasPrices[msg.sender] = _price;\r\n    }\r\n    \r\n    function getGasPrice() public view returns (uint256) {\r\n        return gasPrices[msg.sender];\r\n    }\r\n\r\n    function getMileageRecordCount() public view returns (uint256) {\r\n        return mileageRecords[msg.sender].length;\r\n    }\r\n    \r\n    function getMileageRecord(uint256 _index) public view returns (uint256, uint256, uint256) {\r\n        require(_index < mileageRecords[msg.sender].length, \"Invalid index\");\r\n        MileageRecord memory record = mileageRecords[msg.sender][_index];\r\n        return (record.timestamp, record.fuelLevel, record.distanceTraveled);\r\n    }\r\n    \r\n    function calculateGasMileage(uint256 _index) public view returns (uint256) {\r\n        require(_index < mileageRecords[msg.sender].length, \"Invalid index\");\r\n        MileageRecord memory record = mileageRecords[msg.sender][_index];\r\n        return (record.fuelLevel * 100) / record.distanceTraveled;\r\n    }\r\n    \r\n    function calculateGasCost(uint256 _index) public view returns (uint256) {\r\n        require(_index < mileageRecords[msg.sender].length, \"Invalid index\");\r\n        MileageRecord memory record = mileageRecords[msg.sender][_index];\r\n        uint256 gasPrice = gasPrices[msg.sender];\r\n        return record.fuelLevel * gasPrice;\r\n    }\r\n}",
  "sourcePath": "C:\\Users\\sudee\\OneDrive\\Desktop\\projects\\Car Fuel Mileage Management System\\mileage\\contracts\\Mileage.sol",
  "compiler": {
    "name": "solc",
    "version": "0.8.19+commit.7dd6d404.Emscripten.clang"
  },
  "schemaVersion": "3.4.13",
  "updatedAt": "2023-04-05T09:02:16.623Z",
  "networkType": "ethereum",
  "devdoc": {
    "kind": "dev",
    "methods": {},
    "version": 1
  },
  "userdoc": {
    "kind": "user",
    "methods": {},
    "version": 1
  }
}